{
  "contractName": "HelloWorld",
  "abi": [
    {
      "inputs": [],
      "stateMutability": "nonpayable",
      "type": "constructor"
    },
    {
      "anonymous": false,
      "inputs": [
        {
          "indexed": false,
          "internalType": "string",
          "name": "evPram",
          "type": "string"
        }
      ],
      "name": "NameEvent",
      "type": "event"
    },
    {
      "inputs": [],
      "name": "name",
      "outputs": [
        {
          "internalType": "string",
          "name": "",
          "type": "string"
        }
      ],
      "stateMutability": "view",
      "type": "function"
    },
    {
      "inputs": [],
      "name": "getName",
      "outputs": [
        {
          "internalType": "string",
          "name": "",
          "type": "string"
        }
      ],
      "stateMutability": "view",
      "type": "function"
    },
    {
      "inputs": [
        {
          "internalType": "string",
          "name": "_name",
          "type": "string"
        }
      ],
      "name": "changeName",
      "outputs": [],
      "stateMutability": "nonpayable",
      "type": "function"
    }
  ],
  "bytecode": "0x608060405234801561001057600080fd5b506040518060400160405280600681526020017f6e676869656d00000000000000000000000000000000000000000000000000008152506000908051906020019061005c9291906100a3565b5033600160006101000a81548173ffffffffffffffffffffffffffffffffffffffff021916908373ffffffffffffffffffffffffffffffffffffffff1602179055506101a7565b8280546100af90610175565b90600052602060002090601f0160209004810192826100d15760008555610118565b82601f106100ea57805160ff1916838001178555610118565b82800160010185558215610118579182015b828111156101175782518255916020019190600101906100fc565b5b5090506101259190610129565b5090565b5b8082111561014257600081600090555060010161012a565b5090565b7f4e487b7100000000000000000000000000000000000000000000000000000000600052602260045260246000fd5b6000600282049050600182168061018d57607f821691505b602082108114156101a1576101a0610146565b5b50919050565b61074a806101b66000396000f3fe608060405234801561001057600080fd5b50600436106100415760003560e01c806306fdde031461004657806317d7de7c146100645780635353a2d814610082575b600080fd5b61004e61009e565b60405161005b91906103dc565b60405180910390f35b61006c61012c565b60405161007991906103dc565b60405180910390f35b61009c60048036038101906100979190610547565b6101be565b005b600080546100ab906105bf565b80601f01602080910402602001604051908101604052809291908181526020018280546100d7906105bf565b80156101245780601f106100f957610100808354040283529160200191610124565b820191906000526020600020905b81548152906001019060200180831161010757829003601f168201915b505050505081565b60606000805461013b906105bf565b80601f0160208091040260200160405190810160405280929190818152602001828054610167906105bf565b80156101b45780601f10610189576101008083540402835291602001916101b4565b820191906000526020600020905b81548152906001019060200180831161019757829003601f168201915b5050505050905090565b600160009054906101000a900473ffffffffffffffffffffffffffffffffffffffff1673ffffffffffffffffffffffffffffffffffffffff163373ffffffffffffffffffffffffffffffffffffffff161461024e576040517f08c379a00000000000000000000000000000000000000000000000000000000081526004016102459061063d565b60405180910390fd5b80600090805190602001906102649291906102a0565b507f1d057d4e0bca360fa80f50b30787b994e561d0247fc45395f406cd77c2c203bc600060405161029591906106f2565b60405180910390a150565b8280546102ac906105bf565b90600052602060002090601f0160209004810192826102ce5760008555610315565b82601f106102e757805160ff1916838001178555610315565b82800160010185558215610315579182015b828111156103145782518255916020019190600101906102f9565b5b5090506103229190610326565b5090565b5b8082111561033f576000816000905550600101610327565b5090565b600081519050919050565b600082825260208201905092915050565b60005b8381101561037d578082015181840152602081019050610362565b8381111561038c576000848401525b50505050565b6000601f19601f8301169050919050565b60006103ae82610343565b6103b8818561034e565b93506103c881856020860161035f565b6103d181610392565b840191505092915050565b600060208201905081810360008301526103f681846103a3565b905092915050565b6000604051905090565b600080fd5b600080fd5b600080fd5b600080fd5b7f4e487b7100000000000000000000000000000000000000000000000000000000600052604160045260246000fd5b61045482610392565b810181811067ffffffffffffffff821117156104735761047261041c565b5b80604052505050565b60006104866103fe565b9050610492828261044b565b919050565b600067ffffffffffffffff8211156104b2576104b161041c565b5b6104bb82610392565b9050602081019050919050565b82818337600083830152505050565b60006104ea6104e584610497565b61047c565b90508281526020810184848401111561050657610505610417565b5b6105118482856104c8565b509392505050565b600082601f83011261052e5761052d610412565b5b813561053e8482602086016104d7565b91505092915050565b60006020828403121561055d5761055c610408565b5b600082013567ffffffffffffffff81111561057b5761057a61040d565b5b61058784828501610519565b91505092915050565b7f4e487b7100000000000000000000000000000000000000000000000000000000600052602260045260246000fd5b600060028204905060018216806105d757607f821691505b602082108114156105eb576105ea610590565b5b50919050565b7f6973206f776e6572000000000000000000000000000000000000000000000000600082015250565b600061062760088361034e565b9150610632826105f1565b602082019050919050565b600060208201905081810360008301526106568161061a565b9050919050565b60008190508160005260206000209050919050565b6000815461067f816105bf565b610689818661034e565b945060018216600081146106a457600181146106b6576106e9565b60ff19831686526020860193506106e9565b6106bf8561065d565b60005b838110156106e1578154818901526001820191506020810190506106c2565b808801955050505b50505092915050565b6000602082019050818103600083015261070c8184610672565b90509291505056fea2646970667358221220a54b0607867632c3a25f36a61eb2e1d142d9662ed4898fad21594bd7817496c564736f6c634300080a0033",
  "immutableReferences": {},
  "source": "// SPDX-License-Identifier: MIT\npragma solidity >=0.4.22 <0.9.0;\n\ncontract HelloWorld {\n  string public name;\n  address private owner;\n\n  constructor() {\n    name = 'nghiem';\n    owner = msg.sender;\n  }\n\n  event NameEvent(string evPram);\n\n  modifier onlyOwner() {\n    require(msg.sender == owner,\"is owner\");\n\n    _;\n  }\n\n  function getName() public view returns (string memory) {\n    return (name);\n  }\n\n  function changeName(string memory _name ) public onlyOwner {\n    name = _name;\n    emit NameEvent(name);\n  }\n}\n\n\n// contract HelloWorld {\n//     string private text;\n//     address private owner;\n\n//     function contructor(string memory mes) public {\n//         text = mes;\n//     }\n\n//     modifier onlyOwner() {\n//         require(msg.sender == owner, \"is owner\");\n//         _;\n//     }\n\n//     event NameEvent(string evPram);\n\n//     function setMessage(string memory mes) public onlyOwner {\n//         text = mes;\n//     }\n\n//     function getMessage() public view returns (string memory) {\n//         return text;\n//     }\n// }\n\n\n",
  "sourcePath": "E:\\PROGRAMMING\\Blockchain\\HelloWorld\\contracts\\HelloWorld.sol",
  "compiler": {
    "name": "solc",
    "version": "0.8.10+commit.fc410830.Emscripten.clang"
  },
  "schemaVersion": "3.4.4",
  "updatedAt": "2022-01-02T14:42:17.986Z",
  "devdoc": {
    "kind": "dev",
    "methods": {},
    "version": 1
  },
  "userdoc": {
    "kind": "user",
    "methods": {},
    "version": 1
  }
}